:020000040001F9
:10900000A0390020C1930100C9930100CB93010056
:10901000CD930100CF930100D19301000000000027
:10902000000000000000000000000000D3930100D9
:10903000D593010000000000D7930100D9930100EF
:10904000A1970100DB930100D19A0100DB9301009D
:1090500061980100000000008D960100DB93010083
:10906000DB930100DB930100DB930100DB93010044
:10907000DB930100DB930100DB930100DB93010034
:10908000DB930100F1970100DB930100DB9301000A
:10909000DB930100DB930100B5980100DB93010035
:1090A000DB930100DB9301000000000000000000E2
:1090B000DB930100DB9301000000000000000000D2
:1090C00000000000000000000000000000000000A0
:1090D0000000000000000000000000000000000090
:1090E0000000000000000000000000000000000080
:1090F0000000000000000000000000000000000070
:10910000000000000000000000000000000000005F
:10911000000000000000000000000000000000004F
:10912000000000000000000000000000000000003F
:10913000000000000000000000000000000000002F
:10914000000000000000000000000000000000001F
:10915000000000000000000000000000000000000F
:1091600000000000000000000000000000000000FF
:1091700000000000000000000000000000000000EF
:1091800000000000000000000000000000000000DF
:1091900000000000000000000000000000000000CF
:1091A00000000000000000000000000000000000BF
:1091B00000000000000000000000000000000000AF
:1091C000000000000000000000000000000000009F
:1091D000000000000000000000000000000000008F
:1091E000000000000000000000000000000000007F
:1091F000000000000000000000000000000000006F
:10920000DFF80CD000F026F90048004711B9010042
:10921000A039002030B450E8012F93B2C489234410
:109220008489A34228BF1B1B0489A34202BFBFF34A
:109230002F8F002007E0C3EA020340E80134002C2E
:10924000E9D14FF001000A6030BC704750E8012FAF
:10925000C2EA024240E801210029F7D1704730B448
:1092600050E8022F1FFAA2F3C488A34202BFBFF343
:109270002F8F00200DE0C48923448489A34228BF96
:109280001B1BC2EA034340E80234002CE8D14FF034
:1092900001000A6030BC704750E8022FC2EA224247
:1092A00040E802210029F7D17047034653E8022F16
:1092B000D988B2EB324F4FF0000017BF92B241EAAB
:1092C000014142EA014104E05A68B2EB324F08BF63
:1092D000012043E80212002AE8D1704730B4044666
:1092E00054E8000F0D4644E80053002BF8D11560F8
:1092F00030BC704730B4044654E8000F40EA010522
:1093000044E80053002BF7D1156030BC704730B4EF
:10931000044654E8000F00EA010544E80053002B1E
:10932000F7D1156030BC704730B4044654E8000FE4
:1093300080EA010544E80053002BF7D1156030BCEA
:10934000704730B4044654E8000F00EB010544E8D0
:109350000053002BF7D1156030BC704730B4044681
:1093600054E8000FA0EB010544E80053002BF7D1AF
:10937000156030BC704770B404464FF0000054E8EC
:10938000006F0D68AE4207BF44E80023012044E8A7
:1093900000630E60002B1CBF0020F0E770BC70471C
:1093A00030B4044654E8000F88422CBF451A0546E5
:1093B00044E80053002BF5D1156030BC7047000025
:1093C0000648804706480047FEE7FEE7FEE7FEE75F
:1093D000FEE7FEE7FEE7FEE7FEE7FEE7E5980100B1
:1093E00001920100004870473C66020040EA010318
:1093F0009B0703D009E008C9121F08C0042AFAD24B
:1094000003E011F8013B00F8013B521EF9D270470E
:10941000D2B201E000F8012B491EFBD270470022B6
:10942000F6E710B513460A4604461946FFF7F0FF63
:10943000204610BD421C10F8011B0029FBD1801AE8
:109440007047034611F8012B00F8012B002AF9D1CF
:1094500018467047064C074D06E0E06840F00103EF
:1094600094E8070098471034AC42F6D3FFF7CCFEDF
:10947000146D0200346D020070B58C1810F8015B99
:1094800015F0070301D110F8013B2A1106D110F89D
:10949000012B03E010F8016B01F8016B5B1EF9D1A1
:1094A0002B0705D40023521E0DD401F8013BFAE727
:1094B00010F8013BCB1A921C03E013F8015B01F892
:1094C000015B521EF9D5A142D8D3002070BD10B562
:1094D0004FF0A0411020C1F80C050A2002F05AFEFE
:1094E000042003F0F3F8BDE810400A2002F052BE59
:1094F00008B54FF0A0422021C2F80C158DF80000ED
:1095000000231A460121684600F0D6F9052003F031
:10951000DDF808BD08B500238DF800001A460121CA
:10952000684600F0C9F908BD10B543A000F064FB1F
:10953000FFF7CDFF43A000F05FFB1220FFF7D8FF3D
:1095400043A000F059FB02F063F97420FFF7D0FF4D
:109550005420FFF7DFFF7E20FFF7CAFF3B20FFF715
:10956000D9FF2B20FFF7C4FF0420FFF7D3FF6320B0
:10957000FFF7D0FF0C20FFF7BBFF8B20FFF7CAFFE0
:109580009C20FFF7C7FF9620FFF7C4FF0F20FFF7CF
:10959000C1FF0120FFF7ACFF2B20FFF7BBFF01202D
:1095A000FFF7B8FF0020FFF7B5FF1120FFF7A0FF7E
:1095B0000120FFF7AFFF4420FFF79AFF0020FFF7DD
:1095C000A9FF3120FFF7A6FF4520FFF791FF2B20D1
:1095D000FFF7A0FF0120FFF79DFF0020FFF79AFF94
:1095E0000020FFF797FF3C20FFF782FF0120FFF7E5
:1095F00091FF1820FFF77CFF8020FFF78BFF2220D0
:10960000FFF776FFB120FFF785FF2020FFF770FFFF
:1096100002F0FEF84E20FFF76BFF0020FFF77AFF05
:109620004F20FFF765FF2B20FFF774FFBDE81040C8
:109630000120FFF76FBF00004550445F696E6974F9
:109640002E0000004550445F696E69742E31310070
:109650004550445F696E69742E31320010B5222086
:10966000FFF746FFC720FFF755FF2020FFF740FF19
:10967000BDE8104002F0CCB810B51020FFF738FF5D
:10968000BDE810400120FFF745BF00002DE9F84379
:109690000025DFF894804FF4807601242F46009552
:1096A000304603F02BF838B1D8F80403204203D039
:1096B000304603F019F82543361D64007F1CB6B20E
:1096C000082FEDD34FF4BE74204603F017F848B1CD
:1096D000204603F009F845F000456A4601210020C4
:1096E00002F0D0FF15F0FF0F16D0012600242E4205
:1096F0000ED008EB8401D1F81005D1F81015C0F395
:1097000004200A4AC1F3014152F8242002B19047D3
:109710007600641C082CEAD3002D02DA684604F0B7
:109720005BFBBDE8F883000000600040F0270020EC
:109730002DE9F04107460C462420FFF7D9FE00260C
:1097400043F698253878FFF7E5FE761C7F1CAE427D
:10975000F8D32620FFF7CCFE00262078C043C0B205
:10976000FFF7D8FE641C761CAE42F6D3BDE8F0814C
:1097700070B52420FFF7BCFE002443F69825FF2097
:10978000FFF7C8FE641CAC42F9D32620FFF7B0FEF9
:1097900000240020FFF7BEFE641CAC42F9D370BD6C
:1097A00070B54FF48076304602F0D4FC0F4DB4050E
:1097B00040B1304602F0D5FC0120C4F80803296806
:1097C000002088474FF48276304602F0C3FC002820
:1097D0000AD0304602F0C5FC0220C4F8080329680C
:1097E000BDE870400120084770BD0000182300202C
:1097F00002490248091F0968006808477C230020C5
:1098000000F06CB970B50E46144900EB400001EB56
:10981000C0051446E86A183520B101280FD0022887
:1098200005D113E0284600F08DF9A04201D20024B2
:1098300011E022463146284600F0BCF90BE02846EC
:1098400000F080F9A042F4D20446F2E731462846FF
:1098500000F083F90446204670BD0000182F002058
:10986000F8B54FF040200446114E4FF48C7103F0D0
:1098700002FD00281AD00025C4F81851D4F81801A8
:109880000090F07F3446FF2806D0A17F11B102F08E
:109890000FFF01E002F021FF65772572D4E9002176
:1098A00001B004F10800BDE8F0401047F8BD000029
:1098B0009C28002003F058BC7FB5084C002525707B
:1098C0008DE80F0000226946054803F04BFE00E0DA
:1098D00020BF20780028FBD07FBD0000F8220020A8
:1098E000DC62020070B54FF080520024D2E94C10C7
:1098F0000E2905D1D2F84432694DC3F342332B60AF
:10990000082901D00E2908D14FF08043C3F80C413B
:10991000C3F81041624B1B1F1C60082901D00E299F
:1099200055D1604B1B68604D2B605E4B1B1D1B6847
:109930002D1D2B605B4B08331B682D1D2B60594B75
:109940000C331B682D1D2B60564B10331B682D1DCF
:109950002B60544B14331B682D1D2B60514B183357
:109960001B68514D20352B604E4B1C331B682D1D41
:109970002B604C4B20331B682D1D2B60494B24332F
:109980001B682D1D2B60474B28331B682D1D2B603A
:10999000444B2C331B682D1D2B60424B30331B680E
:1099A000414D40352B603F4B34331B682D1D2B60E0
:1099B0003C4B38331B682D1D2B603A4B3C331B68E6
:1099C0002D1D2B60374B40331B682D1D2B60082944
:1099D00004D1030002D1364D344B2B60082904D149
:1099E000030002D1334DFB232B60334B082907D1F1
:1099F000050005D192F858521A6865F303021A60FF
:109A0000082904D1020002D12C4D8A012A600829BC
:109A100001D00E2906D12A4A1568ED0702D06FF051
:109A2000010515600E2903D11A6842F00F021A6071
:109A30004FF01022082906D1032804D9D2F80802D1
:109A400017491C310860D2F800021E4B002803DBC6
:109A5000D2F8040200280EDA012004F071F8122076
:109A6000C2F8000219680029FCD0C2F80402186884
:109A70000028FCD00BE092F80C02C0070CD00120AB
:109A800004F05EF8C2F80C4218680028FCD00020F0
:109A900004F056F800F0B8F80C490B48086070BDA7
:109AA0003C0500400404001020C50040488103002C
:109AB0008C56004018F50040E40E004040960240ED
:109AC0000004004000E401400090D003F423002093
:109AD00001480068004700002023002010B5124C08
:109AE00002202061606111A0A06104F17800E061B2
:109AF0004FF4007020620020A06260620BA1A1649C
:109B0000E06204F51E71E1641021A065C4E914103F
:109B1000E06509A1E01DFFF794FC08A12046FFF7CE
:109B200090FC2020A07110BD182F00205465726D8C
:109B3000696E616C00000000525454005345474761
:109B4000455200000269C1688A4203D88068401A01
:109B5000104400E0501A401E70472DE9F047C468D9
:109B60001746894606464FF000083069A04201D9E1
:109B7000051B02E0B168201A0D1AB0686D1E001BAB
:109B8000A84200D80546BD4200D33D4670682A462B
:109B900020444946FFF72AFCB0687F1B2C44A844A8
:109BA000A944A04200D10024F460002FDDD140463A
:109BB000BDE8F0872DE9F04104468846D4E9020764
:109BC000C51BE168606816460844B54206D941469F
:109BD000FFF70CFCB819E060BDE8F0812A46414669
:109BE000FFF704FC761B08EB050132466068FFF7BF
:109BF000FDFBE660F0E70000014A024900F038B8DA
:109C000087B501008C230020BFF34F8F0548016802
:109C1000054A01F4E06111430160BFF34F8F00BFBB
:109C2000FDE700000CED00E00400FA0502E008C8C2
:109C3000121F08C1002AFAD170477047002001E0C6
:109C400001C1121F002AFBD170470000012120280A
:109C500003DA81400548014003E0402802DA203859
:109C6000814009B10120704700207047FC06FFBD0C
:109C70002DE9F04116460F460446002503E039461B
:109C8000B047641C6D1C20780028F8D12846BDE838
:109C9000F08190F824001F20704710B501220221A6
:109CA000002001F0A1F808B1072810D107220221F5
:109CB000012001F099F808B1072808D100210A22F3
:109CC000084601F091F808B1072800D1002010BD26
:109CD00072B602F097FF00BF02F0E0FD0028FBD152
:109CE00011481249401AC408012000EB044010A199
:109CF00002F0F0FE11480068C00700D000BE02204C
:109D000000EB04400EA102F0E5FEBFF34F8F0B48BD
:109D1000E43801680E4A01F4E06111430160BFF3C9
:109D20004F8F00BFFDE70000AC6D0200446D0200E4
:109D3000466174616C206572726F7200F0ED00E034
:109D400053797374656D207265736574000000004B
:109D50000400FA050EB500210091CDE901106A4614
:109D600044F20100FFF7B4FF0EBD10B58268C3686E
:109D7000934203D001F0DBFB002010BD052010BD95
:109D800029B112B1531E134203D0092070470E208F
:109D900070470160838000218160C1600846704780
:109DA00010B58268C3689A1A83889A4203D801F072
:109DB000C8FB002010BD042010BD0000014801F0C8
:109DC00054BA00004023002010B55AB100684FF08B
:109DD000FF3401294261C0E9024400D00021016141
:109DE000002010BD072010BD38B5114808235822A7
:109DF000416800910F49006801F0BBFF002815D1B0
:109E00000D4A69460D4801F035FA04000ED10121D2
:109E10000A4801F0AAFA0123094A1946074801F045
:109E2000FCF90649012008390870204638BD0000B9
:109E300038630200D028002089DF01004023002081
:109E4000FFFF7F00F8B50446002617460D468DF843
:109E50000060684600F0D8F8D4E90201C04370EA17
:109E6000010005D09DF8000000F0F2F80020F8BDD8
:109E700001F0D6FB40197141C4E902019DF80000D0
:109E800000F0E6F8A761206900B125612146BDE830
:109E9000F840002004F01CBC38B5044600208DF8C2
:109EA0000000684600F0B0F8D4E90201C04370EA4F
:109EB00001000DD04FF0FF30C4E902009DF8000012
:109EC00000F0C6F82146BDE83840012004F000BC8F
:109ED0009DF8000000F0BCF8002038BD70B50A4EB7
:109EE00001460A48B578FFF740FF04464DB100200F
:109EF000B070711C0122C81D02F002FA08B1FFF710
:109F000029FF204670BD00005C2300202829002086
:109F1000F0B5244E89B01F460D00044672603FD054
:109F2000A888296882B22048FFF72AFF002835D187
:109F3000A889A96882B21C481030FFF721FF0028C9
:109F40002CD1202219496846FFF750FA6069069023
:109F5000207C00B101208DF814008DF81C70607C0D
:109F600000B10E208DF81500E0680290A068039003
:109F700020680190606800900A480D4A69460830E0
:109F800002F08AF9002809D1B0702068401C05D081
:109F900004490122491CC81D02F0B2F909B0F0BD04
:109FA0000720FBE75C230020282900204C630200E7
:109FB00001E8010010B501461048FFF7F1FE04006A
:109FC00019D10F480F4A0178515C19B1001D03F0F7
:109FD0005DFD02E00C3003F033FC60B9084907482E
:109FE0000839FFF7C2FE30B9054901220839044893
:109FF00002F096F90446204610BD000038290020E2
:10A00000642300200C23002030B5EFF3108172B6DA
:10A010000D4A9468012324B10370002900D162B66F
:10A0200030BD93604FF0E023D3F88051074C2540BA
:10A030001560C3F88041D3F8844154605A17C3F8BF
:10A04000842100220270E8E748290020FC06FFBDB9
:10A050000B498A68002A11D000280FD1EFF3108035
:10A0600072B60B684FF0E022C2F800314B68C2F8BC
:10A07000043100228A60002800D162B670470000D7
:10A08000482900202DE9F041064608680C46411C8D
:10A090004FF0A0474FF0010506D005FA00F1C7F8D0
:10A0A0000815206802F0BEFA6068411C02D0002149
:10A0B00002F094FA3168A069C1F82405607D227D20
:10A0C00031681043C1F86C05D4E900123068C0F85B
:10A0D0001425C0F80C15207D012815D1A068411C5D
:10A0E00002D0002102F07AFAE068411C05D08540D8
:10A0F000C7F80855E06802F095FAD4E90212306812
:10A10000C0F80825C0F81015BDE8F0812DE9F04130
:10A11000064608680C46411C4FF0A0474FF0010569
:10A1200006D005FA00F1C7F80815206802F084FA95
:10A130006068411C02D0002102F059FA3168A06920
:10A14000C1F82405607D217D32680843C2F86C05A2
:10A15000D4E900123068C0F80C15C0F81425207D31
:10A16000012815D1A068411C02D0002102F03FFA5D
:10A17000E068411C05D08540C7F80855E06802F04A
:10A180005BFAD4E902123068C0F80825C0F810154F
:10A19000BDE8F08170B51500044609D000202860A4
:10A1A00034B1206820B1A079800703D0072070BDAA
:10A1B0000E2070BD084600F00BFBC0B2142804D07E
:10A1C0002179814203D8042070BD052070BDE2884A
:10A1D000216800FB02102860002070BD2DE9FC47BB
:10A1E000002517880646158090F82D0014468946EC
:10A1F00030B13A462146484600F0FEFA051E09D124
:10A20000B0784FF00C0A18B32088C846001DB84239
:10A2100002D95046BDE8FC87684679DF0028F9D1AD
:10A220002088032108F8001020881921401C80B2E2
:10A23000208008F800102088401C80B2208000EBAD
:10A240000801BDF8000004F07CFC2188084420804F
:10A25000F0780222C8B1218896F9033001F1030C8D
:10A260004846BC45D5D8425421884FF0010C491CC2
:10A2700089B2218000F801C02188491C89B221805F
:10A2800009F801302088401C20807068B8B121880E
:10A2900090F9003001F1030C4846BC45B9D842544E
:10A2A00021880A22491C89B2218042542188491CF4
:10A2B00089B2218009F801302088401C2080308933
:10A2C00050B1CDE900474B460622022106F10800B5
:10A2D00004F0E8FC051E9DD1308A50B1CDE900475D
:10A2E0004B460722032106F1100004F0DBFC051E9B
:10A2F00090D1308B50B1CDE900474B461522142147
:10A3000006F1180004F0CEFC051E83D1306A30B18E
:10A310003B462246494600F0FAFE051EDBD1706A34
:10A3200030B13B462246494601F046FC051ED2D1DB
:10A3300096F82C0038B13B4622464946304603F099
:10A3400097FF051EC7D1307838B13B4622464946B3
:10A35000304601F0BBFC051EBDD128465AE718B5B2
:10A3600004460020ADF8000013466A46204600F07F
:10A3700006F8002802D0BDF80000204418BD70B5D2
:10A38000E0B1DAB1002402E0045D2C44A4B2651C03
:10A390008D4206D21688A642F6D8061976789E42D5
:10A3A000F2D18C420AD2A31C005D9BB200B1401EC8
:10A3B0000004000C02D01C188C4201D9002070BD92
:10A3C000138070BD80F8301070472DE9F0410D000A
:10A3D000044606D02CB195F87A000026012803D057
:10A3E00006E00E20BDE8F08195F89800012829D0FC
:10A3F000D5F8A000042825D0D5F89C00042821D049
:10A400004FF00108A6702C2205F17801201DFEF7FF
:10A41000EDFF84F83060D5F8A4006063D5F8A8009B
:10A42000A0634FF6FF70A4F8E80004F1D400C4F86C
:10A43000E400C4F8EA60A4F8EE6084F8F0602078E4
:10A4400010B104E00720CDE7FF2084F8540004F1A8
:10A4500055072046C4F8D470FFF71BFCA4F8D800B9
:10A4600004F1D80239462846FFF7B8FE0028B9D1D2
:10A4700004F19300C4F8DC002046FFF70AFCA4F8BE
:10A48000E00004F1E00205F13C00D4F8DC10FFF735
:10A49000A5FE0028A6D184F85180208BA4F848009E
:10A4A00084F83C80266484F8506060690021606410
:10A4B000454604F13C02781E72DF002892D12570D7
:10A4C00090E710B50288102A1BD0112A20D0262A26
:10A4D0001DD1007A0C46012801D0022817D1A0789E
:10A4E0000521401CB0FBF1F201FB1201204600F0F7
:10A4F0003AF800280BD0A16B002908D0BDE8104025
:10A500000847C27B012A02D18088A1F8E80010BD6B
:10A510000C46002184F8F2108088B4F8E8108842D4
:10A52000F5D120790028F2D10121DFE710B50446EA
:10A5300090F8540074DF012084F8F200002084F8C1
:10A54000F40084F850000621204601F008F80028A5
:10A5500008D1A178204600F006F810B1A16B01B136
:10A560008847002010BD2DE9F05F044600780F46B3
:10A5700098B1A7700025C4F8EA50A4F8EE5084F80A
:10A58000F050A079012608B1012F09D0E07980B1FF
:10A59000012F05D0022F03D00BE00820BDE8F09F6B
:10A5A000616B21B184F8F1600820884701E084F8EC
:10A5B000F15004F1EB0100200A5C0AB1304603E0DF
:10A5C000401C0628F8D300204FF002084FF0030A81
:10A5D0004FF0040B012F06D0022F0CD0032F0FD009
:10A5E000042F15D110E0A17929B194F8241011B9E4
:10A5F00008B130460DE0E17911B108B1404608E0FC
:10A60000207A08B1504604E0607A08B1584600E06C
:10A610002846A070616B41B1032801D0042804D101
:10A62000607910B194F8F20098B184F8F35004F115
:10A630003C0018210746FEF7F2FE84F83C6004F166
:10A640002C0003F0BFFB58B194F82C0084F85100A3
:10A6500008E084F8F45084F8F36007208847E6E7C0
:10A6600084F8516094F8240058B104F1280003F0F4
:10A67000A9FB20B194F8280084F8520001E084F886
:10A68000526084F85050A27804F1EA0104F1D40930
:10A69000052A4DD2DFE802F065030F1B320084F873
:10A6A0003160C4F8E450C4E9101584F83C8080207F
:10A6B000A4F848003EE084F8318087F800A0228AA0
:10A6C000BA81C4F8E4507960E168B96032E0606949
:10A6D000B860208BB8813D4684F83C60204604F089
:10A6E000C3FA40B185F814800421204600F037FFFA
:10A6F000F0B9052115E084F831A017E0E069B860F1
:10A70000208CB8813D4684F83C60204604F0ACFAC9
:10A7100050B185F814800421204600F020FF38B99C
:10A72000062184F8311001E084F831B0C4F8E490D7
:10A73000A07878B13A4604F15400D4F8E41072DFFE
:10A7400000287FF42BAF94F8301094F8540073DF96
:10A750000028F6D1616B11B194F8310088470020D0
:10A760001CE784F83150F5E770B5040012D00146BB
:10A770001C221448FEF73AFE1248134D056020686B
:10A7800050B17ADF002806D120680168296040684E
:10A79000686005E00E2070BD0B487BDF0028FAD111
:10A7A00008484FF6FF711438084A20F8041B054981
:10A7B000343901600021FFF707FB0028EBD00320AC
:10A7C00070BD0000442700200423002001EC01009C
:10A7D00010B5044600F006F808B1204610BD14205C
:10A7E00010BD0000142801D3002070470146014825
:10A7F00001F009BB642700207CB5054608880C469B
:10A800000930904201D90C207CBD68466DDF0028DC
:10A81000FAD121880820685420881B21401C80B26E
:10A82000208029542088401C80B220802844DDF8F4
:10A8300001100160BDF8051081802088801D80B264
:10A8400020809DF80010490800D00121295420885B
:10A85000401C208000207CBDF8B52B4D01880446AB
:10A860002E8821293BD015DC2848294A1029A0EB45
:10A8700002004FEAD0004FF0030202EB004013D079
:10A88000112925D0132929D100231A4685213046C4
:10A890007FDF17E03B2932D052292AD056291DD11B
:10A8A0008088132176DF0DE01AA102F013F907204A
:10A8B00000F09CFA08B1FFF74DFAA18829801848EA
:10A8C00001F0D0FB002809D0BDE8F840FFF742BAFC
:10A8D00014A102F0FFF84FF6FF702880F8BD0020A9
:10A8E0000090A08869468FDF0028F7D0FFF732FA82
:10A8F000F8BD00231A4619463046B1DFE2E78088EA
:10A90000132176DFDEE70000D0220020AC6D0200CC
:10A91000446D0200436F6E6E6563746564000000F1
:10A9200008260020446973636F6E6E656374656406
:10A930000000000010B51A4C0188606810290ED084
:10A9400011292BD1401E606028D1FFF7A6F90028FD
:10A9500024D02168002921D0BDE810400847D0B993
:10A9600000210122084600F03FFA08B107280FD164
:10A9700007220221012000F037FA08B1072807D189
:10A9800004220221002000F02FFA20B1072802D073
:10A99000216801B188476068401C606010BD0000FC
:10A9A000FC2200202DE9F04701883B4E40F2F319CC
:10A9B0004FF6FF7510291BD011293ED0122954D013
:10A9C000502946D1C188F289841D914241D16189C3
:10A9D00002293ED18688304600F03CFE050038D082
:10A9E00004F10C0000F0B9F9A8B3294630464EE056
:10A9F000C17B8788044601292BD1A846284600F050
:10AA000029FE050017D02F800020287223484346D6
:10AA10004A460168C5F80A104068C5F80E0004F1FE
:10AA2000100105F10A0000F0D1FE6872F0890028DB
:10AA30000FD129462AE0042013E0808800F00AFEA6
:10AA4000040006D06068FFF727FA08B103F0E0FBC6
:10AA50002580BDE8F087FFE76868FFF71DFA00284A
:10AA6000F7D0BDE8F04703F0D3BB878806463846E9
:10AA700000F0F0FD0400ECD02B464A4606F1080138
:10AA800004F10A0000F0A2FE607221463846BDE8DB
:10AA9000F04700F083BB000044270020042300207F
:10AAA0002DE9F04702888688DFF8F8A098B0102AD0
:10AAB0000DD0112A46D00AF11003192A61D01A2AA2
:10AAC0006CD1007A0409042C43D3012242E0354CB6
:10AAD000083CA068C0430B9061680BA801F0B4F972
:10AAE0000B990CA800F0F4FA2C220CA96846FEF78A
:10AAF0007DFC0027E8460FE008EB47005FF000050B
:10AB0000B0F8049004EB85004946001D01F070F98F
:10AB10006D1C1E2DF6D37F1C0098B842ECD8142E65
:10AB200005D318B00420BDE8F047FFF713B931464C
:10AB3000504601F073F918B03146201DBDE8F047CA
:10AB400001F06CB918B031465046BDE8F04701F04D
:10AB50004FB900223146184600F0FCFC032C01D30B
:10AB6000012200E000220F4831460C3000F0F2FCD8
:10AB7000022C01D3012200E000220A4831460830AD
:10AB800007E0017A002909D1407A3146C0F3C002BA
:10AB9000184618B0BDE8F04700F0DCBC18B0BDE8BE
:10ABA000F087000068270020F0B585B016460F46F4
:10ABB00004001D4614D004AA19466069FFF7EAFA9A
:10ABC00000280BD1A5F57F40FF380BD0049848B181
:10ABD000007848B13088F42808D9072005B0F0BDC6
:10ABE0000E20FBE70520F9E70820F7E7002000909A
:10ABF000019002900390A088ADF8000001208DF82C
:10AC00000200CDE9026769462846AEDFE6E70000AC
:10AC100070B5334D04008EB02DCD08AE86E82D0002
:10AC20005BD0E9B30868A061214608A862DF00286C
:10AC300051D1207801258DF83200ADF83050A21C9A
:10AC40000CA92846A8DF002845D120216846FEF738
:10AC5000E6FB0220ADF8000020788DF802008DF8A8
:10AC60000C509DF80D00F426ADF8046040F00C0087
:10AC70008DF81150ADF806508DF80D008DF812507A
:10AC8000608804F10C02694600F02CF9002822D1FA
:10AC900020216846FEF7C3FB0320ADF8000000E06A
:10ACA0001BE020788DF802008DF80C509DF80D0007
:10ACB0008DF81150ADF8046040F010008DF812507E
:10ACC000ADF806508DF80D008DF813506088221DE8
:10ACD000694600F007F90EB070BD0E20FBE70000DA
:10ACE0000863020070B588B00446002927D0002C04
:10ACF00025D008462188102923D0502927D057294C
:10AD00001DD10546A188406906AAFFF743FA00282D
:10AD100015D1069E3078002811D0A86900280ED0E1
:10AD200018216846FEF77BFB01208DF80000019595
:10AD3000A088ADF808000396A9696846884708B05E
:10AD400070BD08B02146BDE8704002F025BF08B0D4
:10AD50002146BDE8704002F0F3BF007800F001002A
:10AD6000704700000449024600200A604968002933
:10AD700001D1FEF792BF7047FC22002010B50020E1
:10AD800000F038F808B1062806D1012000F032F8AA
:10AD900008B1062800D1002010BD0000014610486F
:10ADA00010B50088042907D007290ED00A2915D12B
:10ADB000BDE8104003F0B8BA132176DF0CE000289C
:10ADC0000CD0BDE81040FEF7C5BFA0F57F41FF39AC
:10ADD00004D10448FFF7AAFB0828F0D110BD0000F9
:10ADE000D022002014260020072070470020704742
:10ADF00000207047062070472DE9F84F0546861C55
:10AE000000208DF8000091460F464FF0010A684679
:10AE1000FFF7FAF81B4C04F21C4860683860D4E96C
:10AE20000101194F401A3968081A0EE00121404605
:10AE300001F004F800F01AFD0146404600F0FEFF64
:10AE4000D4E90101401A3968081A401C8642EDD83D
:10AE5000B9F1000F03D0052065F3891002E0062048
:10AE600065F39F5061683A68114004EB8101C86046
:10AE70006068304460609DF80000FFF7E9F85046D4
:10AE8000BDE8F88FF82A00209C23002070B50D46FD
:10AE900004460A2902D10D21FFF7F8FFA0682268B5
:10AEA000411CA1601554D4E90101814204D320461C
:10AEB000BDE8704001F051BA70BD000004488168DF
:10AEC0004068814201D10120704700207047000096
:10AED000F82A00200249084490F930007047000029
:10AEE000F02700202DE9F0438146887891B0904604
:10AEF0000C4600B901208DF83E002088ADF83C00DA
:10AF000000250095607C694603F0F6F96E46A07C4A
:10AF1000711C03F0F1F9E07B00289DF8020002D0DB
:10AF200040F0080001E020F008008DF80200217CCC
:10AF300011B140F0100001E020F010008DF8020087
:10AF4000217B11B140F0010001E020F001008DF8FB
:10AF50000200217D09B1022100E0012161F34200DC
:10AF60008DF802001C2102A8FEF759FA607BC10689
:10AF700001D4800617D50E950EAFE07C791C03F046
:10AF8000BBF99DF83800079720F00F00401C20F017
:10AF9000F00010308DF838009DF83A0020F00600DF
:10AFA000801C8DF83A00607B8DF80800A07B8DF83E
:10AFB0000900142109A8FEF732FA0FA8CDE9090605
:10AFC000A088ADF83000A06820B1E088ADF82C0072
:10AFD000A0680D90A06998B301950088ADF81000A5
:10AFE000A06901AD01A94088ADF81200A0694068D0
:10AFF00006950390A069007B03F07EF9A069691CA7
:10B00000407B03F079F9A069807A00289DF806005A
:10B0100002D040F0080001E020F008008DF80600A2
:10B02000A169C97A11B140F0100001E020F01000D0
:10B030008DF80600A169097A19B140F0010002E01B
:10B040000DE020F001008DF80600A169897B09B1AF
:10B05000022100E0012161F342008DF80600E06961
:10B0600000B10590434609AA02A94846AADF11B0DB
:10B07000BDE8F08370B5084C050009D01034216894
:10B08000002907D008682060496828468847F6E705
:10B090000834F4E770BD0000DC270020054A0121D8
:10B0A00020B1012805D19170FFF7E4BF5170002055
:10B0B000FAE77047DC27002010B5D0E90234D1E967
:10B0C0000220D11AA04101D3012010BD002010BDE3
:10B0D00073B58CB00646002000900D9880B1002416
:10B0E0006D4621460DA800F08EFE30B1009805EBAC
:10B0F000400084800098401C0090641C142CF0D305
:10B100002C2269463046FEF771F90EB070BD2DE96C
:10B11000F04117880646B81D14460D46984202D9DC
:10B120000C20BDE8F0813188072206290AD34FF4AC
:10B13000486C4FF6FF73614501D9994202D170887E
:10B14000062801D21046ECE7604501D99842F9D1B2
:10B15000994203D0984201D08142F3D80520E855A6
:10B1600020881221401C80B2208029542088401C55
:10B1700080B220804119308803F0E3FC2188084424
:10B1800080B220804119708803F0DBFC21880844DC
:10B1900020800020C5E7FEF7DDBD000038B54A7A03
:10B1A0000F4B62B100220A725969002906D00122B0
:10B1B0008DF80020ADF802006846884738BD0A7A4D
:10B1C00062B19B684C68024619462046FEF73AFE7B
:10B1D0000028F3D0BDE8384003F01AB85B68F1E707
:10B1E0004427002010B50021024800F038FE80F30B
:10B1F000100010BD142F00204FF480328A400168E7
:10B20000C1F848230068C0F8082370474FF4A072C3
:10B2100002EB810189B200F080B92DE9F0410546C9
:10B220000E464FF4A07000EB860081B228684FF400
:10B230008034B440984622F07F47C0F8084328681D
:10B24000C0F84843286801F0E9FD286800EB860053
:10B25000C0F840752868C0F84443B8F1000F02D028
:10B260002868C0F80443BDE8F0810068D0F8040500
:10B270007047000070B54379234C44F8232042798D
:10B28000231D03EBC202224C1579204A121BD4085D
:10B290002DB10825022000EB04401EA130E0056816
:10B2A0000A88C5F8082590F904208978002A4FEA11
:10B2B000411104DB02F1E02282F8001405E002F003
:10B2C0000F0202F1E02282F8141D90F9041001220D
:10B2D000002909DB01F01F0502FA05F5490989007B
:10B2E00001F1E021C1F800514179002503EBC101D2
:10B2F0000A71417943F83100032000EB04400EA1AC
:10B3000001F0E8FB284670BD78230020946D020010
:10B31000446D020052544320696E7374616E63651C
:10B3200020616C726561647920696E697469616C11
:10B33000697A65642E0000005254433A20696E69B0
:10B340007469616C697A65642E00000090F90400EC
:10B35000002809DB00F01F02012191404009800014
:10B3600000F1E020C0F8001270470A46022100F008
:10B37000CBB84FF4827100F0D0B8006801210160B1
:10B38000704700680121416070472DE9F05F074672
:10B390000C464FF4A07000EB84001FFA80FA386866
:10B3A0004FF48036A6409B4622F07F45C0F84863A4
:10B3B0003868C0F808633868D0F8048500EB840268
:10B3C000D2F84095C2F840855146386801F026FD14
:10B3D000A9EB080020F07F40012806D1102001F0E1
:10B3E000D5FF5146386801F019FD3868D0F804855A
:10B3F000C0F84463A5EB080121F07F4138680129BA
:10B4000000EB840010D0C0F840553868D0F804151F
:10B410006FF07F4C6A1A521E22F07F42ACEB0B0396
:10B42000934217D362B118E06D1CC0F8405510204C
:10B4300001F0ACFF3868D0F8040540450AD10CE0B3
:10B4400000EB84006D1CC0F840553868D0F8040546
:10B45000884202D00D20BDE8F09F012231463846D7
:10B4600000F052F80020F6E71CB502F0B5FF20A06E
:10B47000FEF7C2FB052001F0CBF8052001F026F90C
:10B48000042001F0C5F8042001F020F90021032078
:10B49000034600910A46019101F058F8022001F09C
:10B4A000B7F84FF0A0410420C1F80C05072001F0C7
:10B4B000AFF8072001F00AF9104C00BFFEF734F88E
:10B4C0000F491048FEF734F9FEF7C8F8FEF7D4F834
:10B4D000204600F05FFEFEF727F8FEF749F9FEF779
:10B4E000BDF8FEF7C9F8204600F054FEE6E700007C
:10B4F000657064746573742E00000000803801006C
:10B500003E280200A6ED01000368C3F84413002A98
:10B5100002D00068C0F80413704710B500684258A4
:10B520001AB101F07BFC012010BD002010BD826823
:10B5300083881A4003689A5C0A708168491C81609C
:10B540007047C26883881A4003689954C168491CCF
:10B55000C16070470AB100F061BC00F049BC70B531
:10B560000D460446B0F8D810D0F8D4000122FEF7FA
:10B57000F6FE00B1057004F13C0204F1D40104F1BF
:10B58000540072DF70BD10B50446C0B2FEF712FD64
:10B59000204610BD0C484A8803889A4213D10A8875
:10B5A000A2F52063773B0ED18988C91E8AB24280FA
:10B5B000064807491346401AC008032101EB004022
:10B5C00004A101F092BA7047D0220020AC6D0200B5
:10B5D000446D020044617461206C656E20697320C3
:10B5E00073657420746F20307825582825642900ED
:10B5F00010B50949094800F0A9FC08B1FEF7AAFBFB
:10B60000F721064800F096FC002803D0BDE8104062
:10B61000FEF7A0BB10BD000095B50100F825002085
:10B6200010B50B48FFF721FE094A083AD2E9043465
:10B63000C018D2E9063244F10001C31A71EB0202CC
:10B6400004D24FF08072801841F1000110BD00005B
:10B65000402300200146034802888A4200D000208F
:10B6600070470000302700202DE9FC5F0E00834664
:10B67000DDE90C47C6F1000098469246814600D4A9
:10B680000846012503E000BF90FBFAF06D1C504511
:10B69000FADAA84500D9454624B1002E01DB780727
:10B6A00000D5641EB80702D5B8F1000F0AD0F8071C
:10B6B00008D13CB1A54205D220215846641EFFF7AF
:10B6C000E5FBF6E7002E02DA4E462D2102E0780770
:10B6D00003D52B215846FFF7D9FB07F003000228BA
:10B6E0000BD1B8F1000F08D13CB1A54205D23021F1
:10B6F0005846641EFFF7CAFBF6E7CDE9004743460C
:10B7000052463146584603F021FABDE8FC9F00003E
:10B7100070B50D46044600684FF4887101F0ECFDE9
:10B720004FF49071206801F0E7FD4FF492712068AA
:10B7300001F0E2FD4FF4A271206801F0DDFD4FF44D
:10B74000AC71206801F0D8FD20681249C0F80413DC
:10B750002068690740F30730090E002804DB00F178
:10B76000E02080F8001405E000F00F0000F1E02078
:10B7700080F8141D206840F30730002809DB00F032
:10B780001F02012191404009800000F1E020C0F833
:10B79000001170BD100342000246002012685307DA
:10B7A00013D502F00300012802D002280CD105E0D5
:10B7B000C2F383100B68801C184404E0022308685D
:10B7C00003EB92521044086001207047F0B5848862
:10B7D000A518944200D82246A41AC288D6189A42C4
:10B7E00000D81346D21A4B880788BB420CD3408836
:10B7F000834209D88888A04206D3A84204D8C888C2
:10B80000904201D3B04201D90020F0BD0120F0BD2B
:10B8100010B509A0FEF7F0F94FF0A040D0F81015D0
:10B82000C90811F0010FF9D1C82000F0B3FCBDE840
:10B83000104005A0FEF7E0B96C63645F63686B734A
:10B8400074617475730A00006C63645F63686B7382
:10B850007461747573320A00F721018017214180E9
:10B860000021017141717047704700002DE9FF41CF
:10B870000026244800F0DFFA2248001F074600F0A7
:10B88000DAFA214C2149A06800900D6800E0009888
:10B890006946284004EB80000C30FFF77DFF00284C
:10B8A000F5D101AA009901EA050304EB8303491CC1
:10B8B000DB6842F82030401C00910228F2D3019846
:10B8C00000F0030001280BD0022810D101980321B9
:10B8D00001EB90500099BDF80A6001EB900005E083
:10B8E0000198BDF80A60C0F3831008440090384600
:10B8F00000F09EFA08B10098A06004B03046BDE8A0
:10B90000F0810000102F0020F82A00209C23002046
:10B91000ACB0182287496846FDF768FD8648069056
:10B9200086494FF48070CDE9070109900723844AC6
:10B9300006A96846FEF7ECFA08B1FEF70BFA4FF4D9
:10B940008041002001F032F908B1FEF703FA00F05F
:10B9500097FFFEF749FA08B1FEF7FCF97949032091
:10B96000FFF746FA08B1FEF7F5F969460020FFF740
:10B97000F9F908B1FEF7EEF901F022FA08B1FEF785
:10B98000E9F901F0B7FB08B1FEF7E4F900246946D4
:10B990000120009401F052FA08B1FEF7DBF9684685
:10B9A00001F0E0FA08B1FEF7D5F99DF8080066A1AC
:10B9B00020F00F00401C20F0F00010308DF808003F
:10B9C0000B2202A87CDF08B1FEF7C4F90094102016
:10B9D000ADF800003C200194ADF80200ADF8044041
:10B9E0004FF4C870ADF8060068467ADF08B1FEF77C
:10B9F000B1F9FFF7FDFD5748019001A9564800F045
:10BA00003CFB08B1FEF7A6F954480090694654483B
:10BA1000FFF7FEF808B1FEF79DF9AC216846FDF787
:10BA2000FEFC02208DF800008DF8024005208DF804
:10BA300003000120ADF84C0049498DF87C004020FE
:10BA4000091F2290149144F2506023904548299098
:10BA5000414869460C30FEF7B8FC08B1FEF77AF9A8
:10BA60003D4801210C30FEF7ADFC1C216846FDF776
:10BA7000D6FC4FF4A030CDE900404FF4F020029006
:10BA800039480590032539488DF80C500690ADF8DB
:10BA90000E408DF810406846FEF766FE08B1FEF7CE
:10BAA00059F933A0FEF7A8F836483749401AC008BC
:10BAB00005EB004035A101F00DF8274803210C30BB
:10BAC000FEF751FD08B1FEF745F9102000F098FD92
:10BAD000112000F095FD122000F092FD102000F0E2
:10BAE000EEFD112000F0EBFD122000F0E8FD4FF418
:10BAF00000364FF0A0444FF4FA75770000F0CEFE08
:10BB000008B901F071F9C4F80C65122000F0D7FDF6
:10BB1000284600F02FFB112000F0D1FDC4F80C7571
:10BB2000284600F027FBFFF79FFC11A0FEF764F802
:10BB3000E4E7000088ED0100F8230020F82400204D
:10BB40005DE701009DAD01004E6F726469635F5552
:10BB500041525400FDCD010008260020A9DA010061
:10BB6000D822002059DB01007DDB010097B10100E4
:10BB70000D0A5541525420737461727465642E0D20
:10BB80000A000000AC6D0200446D0200446562755D
:10BB900067206C6F6767696E6720666F722055411A
:10BBA0005254206F7665722052545420737461721F
:10BBB0007465642E0000000070B5144682880E463D
:10BBC00005462088111D0144921C994201D8FE2A85
:10BBD00001D90C2070BD521C32542088FF21401C1A
:10BBE00080B2208031542088401C80B2208081198E
:10BBF000288802F0A6FF2188084480B22080AA8805
:10BC000042B1A96841B13044FDF7F0FB2088A98812
:10BC100008442080002070BD072070BD2DE9F0474A
:10BC2000C5881E1DB6FBF5F78946B6FBF5F104463F
:10BC300005FB176C407916686843DDF820A0F718FB
:10BC4000001F874200D9C61A166001E02468491E09
:10BC50000029FBD1A5EB0C078846B74216D818E09F
:10BC600004EB0C00001D09EB0803BAF1000F3A4683
:10BC700002D00146184600E01946FDF7B7FB2468DC
:10BC8000F61B4FF0000CB844B54201D9374600E02E
:10BC90002F46002EE4D1BDE8F087000030B5024603
:10BCA00051B100F097FF0021074C08E034F8213033
:10BCB0001568AB4202D11160002030BD491C8142A1
:10BCC000F4D3052030BD000000000000F8B50F4699
:10BCD000017814460546012901D1687830B12088E1
:10BCE000821C9A4232D8012902D006E00720F8BD12
:10BCF00069780144891C994228D8181A801E86B296
:10BD0000ADF800602188B81C084469467DDF002832
:10BD1000EDD12978022904D06878BDF8002090423E
:10BD200005D3BDF80000B04201D809200AE0082080
:10BD3000012905D16978B14202D8ADF8001001E0BF
:10BD4000ADF80060BDF80010FE2901D90C20F8BD47
:10BD50002288491CB9542188491C89B22180785411
:10BD60002088401C2080BDF800100844208000205E
:10BD7000F8BD10B531B1B2FBF3F403FB14241CB1D0
:10BD8000092010BD0E2010BD0160002141608160BE
:10BD90008281C381084610BD70B50C460546FDF78B
:10BDA00039FA002802D021882868084470BD10B5EF
:10BDB0000A8849888A4203D1FDF76EFA012010BD36
:10BDC000002010BD70B50C460546FDF748FA002866
:10BDD00002D061882868084470BD10B50A88498877
:10BDE0008A4203D1FDF732FA012010BD002010BDB8
:10BDF00001F01F0301229A40D243490900EB810060
:10BE0000114600F021B84A0950F8220001F01F0243
:10BE100001219140084000D00120704701F01F032C
:10BE200001229A40490900EB8100114600F01CB83C
:10BE3000002100F00FB8012100F016B808B56A46DD
:10BE4000FDF77FFA009808BD08B56A46FDF75FFA6E
:10BE5000009808BD08B56A46FDF759FA08BD08B54F
:10BE60006A46FDF73BFA08BD08B56A46FDF742FA97
:10BE7000009808BD08B56A46FDF770FA009808BD3D
:10BE800038B5044600258DF800506846FEF7BCF82A
:10BE900021686268086890420ED9401E08600178E7
:10BEA000238AE26801FB0325227A2168101AC0B2B6
:10BEB0000A79824200D208719DF80000FEF7C8F8A6
:10BEC000284638BD38B5054600208DF800000C46E0
:10BED0006846FEF799F8E868298A201AB0FBF1F164
:10BEE0002A681068431C136001709DF80000FEF77B
:10BEF000AFF838BD10B530B1017A42680368891ACD
:10BF0000C9B21A6006E00E2010BD03681A68541CFE
:10BF10001C601170491EC9B2F7D20068002101717E
:10BF2000084610BDC20800F007030120895C984054
:10BF30000840704728B1A1F11702E12A03D3072076
:10BF400070470E20704701800020704710B560B127
:10BF5000C160F72120F8021B20F8021BFB2100F82A
:10BF6000021BFFF779FC002010BD0E2010BD000061
:10BF70007CB50C468188002933D102880025102A1F
:10BF800006D0112A09D03A2A0BD0552A2ED129E001
:10BF90000146204601F036FE28E0A01DFFF75CFCBC
:10BFA00024E02246408934F8063F834200D81846F0
:10BFB0006080172800D217206080D06878B160793F
:10BFC00068B1184BD3E90003CDE90003ADF80210C6
:10BFD0006088ADF80400D3686946104698476571DB
:10BFE00025717CBD0146204601F052FEA07A002852
:10BFF000F7D02846E188A5DF012680B11128F0D0CE
:10C0000001F05AF902460848084902B0401AC0082F
:10C0100006EB0040BDE8704005A100F05FBDA572D1
:10C02000E6727CBDF8620200446D0200446D0200BD
:10C0300073645F626C655F67617474635F65786386
:10C0400068616E67655F6D74755F72657175657344
:10C050007428292072657475726E65642025732EAC
:10C060000000000020B10278DE2A03D008207047CB
:10C070000E20704741800020704760B159B10278AE
:10C08000DE2A0AD009684160DE2101704FF6FF7197
:10C090004180002070470E207047082070477FB510
:10C0A000054600294DD0002D4BD008780C46DE28DF
:10C0B00047D1A8886188884202D1204602F0E0FD7D
:10C0C0002888012825D002283BD011283AD05128B1
:10C0D00037D135F8040F6188884232D1A978A81C7D
:10C0E00002292ED1017A042903D0062901D005297D
:10C0F00027D10021009102228DF8002001914FF4F8
:10C10000C07202910391ADF80420007A05280FD087
:10C1100010E0297A2046012913D1A988428891424A
:10C120000FD10121017204B0BDE8704002F0A8BD3A
:10C13000ADF8041028886946B0DF002801D0616896
:10C1400088477FBDA88861888842FAD14FF6FF7082
:10C1500060807FBD00F180400068002800D0012091
:10C16000704708B500F18040002101600068009030
:10C1700008BD00002DE9F041040007D0044E4FF443
:10C180007A47751C3846A847641EFAD1BDE8F0818D
:10C1900080ED01002DE9F041040007D0044E4FF47A
:10C1A0007A47751C3846A847641EFAD1BDE8F0816D
:10C1B000A0ED010070B50D4C0125207808B1852651
:10C1C0000EE00020A06060602061E060084801F09F
:10C1D000B7F8064600F0DAFF08B901F09BF82570C1
:10C1E00001F090F800B1A570304670BDDC2700204A
:10C1F0009DB0010038B500258DF800506846FDF768
:10C2000003FF084CE068401EE060E06828B901F0D8
:10C2100079F810B901F0A2F8A5709DF80000FDF7BB
:10C2200017FF38BDDC2700202DE9FF411C460378AD
:10C23000164D174E45F82320083545F82340F0CE1B
:10C240008DE8F0000C788DF800404C788DF80140B6
:10C250008C788DF80240CC788DF803400C798DF8FD
:10C2600005404C798DF806408C6802940C7B8DF863
:10C270000C40497B8DF80D1002B1064A6946001D3D
:10C2800001F0BAF804B0BDE8F081000028230020D6
:10C29000246302002DE40100F0B50546047815483A
:10C2A00089B0164640F82420124A0869121DA2F1EE
:10C2B000080742F82400487F385520226846FDF7D9
:10C2C00095F804942878385C48B10EB10A4A00E029
:10C2D00000226946281D01F0CBFA09B0F0BD0EB16D
:10C2E000064A00E00022694605F10C0001F074F9ED
:10C2F000F3E700001023002001EA0100A5E8010097
:10C3000030B40378054CE35C1BB130BC001D01F078
:10C31000E5BA30BC0C3001F0C9B900000C23002094
:10C3200030B40378054CE35C1BB130BC001D01F058
:10C3300057BB30BC0C3001F02FBA00000C2300209A
:10C340000FB408B50399002904D004AA00926A46E4
:10C3500000F00FF801B05DF814FB10B582680446D8
:10C36000002A05D0D4E90403216898470020A06082
:10C3700010BD2DE9FC4791460C00804676D014F89C
:10C38000011B39B125290ED04046FEF77FFD2078EC
:10C390000028F4D198F80C00002867D04046BDE88A
:10C3A000FC47FFF7DABF0020012221782B291BD0A0
:10C3B0002D2902D0302908D102E040F0010001E02F
:10C3C00040F00200641C002AEFD100252A290ED07B
:10C3D0002178A1F130020A2A11D205EB850201EB86
:10C3E0004205641C303DF1E740F00400EAE7D9F86B
:10C3F00000100B1DC9F800300968641C0D44217839
:10C4000000232E290BD114F8011FA1F130020A2AB2
:10C4100005D203EB830201EB4203303BF3E76C29C7
:10C420000DD068290BD0692921D00BDC252918D023
:10C43000582931D063290ED0642915D117E014F89A
:10C44000011FECE7702969D0732932D075291BD000
:10C45000782909D120E0D9F80000011DC9F80010A1
:10C4600001784046FEF712FD641C90E76CE0D9F8B5
:10C4700000100A1DC9F800200968CDE900500A2201
:10C480004046FFF7F1F8EFE7D9F800100A1DC9F8A8
:10C49000002009680A2206E0D9F800100A1DC9F830
:10C4A000002009681022CDE90050404602F04EFB02
:10C4B000DAE7D9F8001000270A1DC9F800200E6835
:10C4C000C00705D112E04046761C7F1CFEF7DEFC5B
:10C4D00031780029F7D104E0202140466D1EFEF797
:10C4E000D5FCBD42C0D9002DF6D1BDE74EB13046D6
:10C4F000FCF7A0FF074604E0202140466D1EFEF732
:10C50000C5FCBD4206D9002DF6D103E04046761C9D
:10C51000FEF7BCFC31780029F8D1A5E7D9F8000076
:10C52000011DC9F80010056830214046FEF7AEFC39
:10C5300078214046FEF7AAFC08200021CDE9000141
:10C54000034610222946B0E7BDE8FC8770B541EAF2
:10C550004201DDE904564FF0A04441EA830141EA7B
:10C56000052104EB800041EA0641C0F8001770BDC8
:10C5700070B541EA4201DDE904564FF0A04441EABA
:10C58000830141EA052104EB800041EA0641C0F83D
:10C59000001770BD70B541EA4201DDE904564FF065
:10C5A000A04441EA830141EA052104EB800041EA0D
:10C5B0000641C0F8001770BD70B541EA4201DDE9DF
:10C5C00004564FF0A04441EA830141EA052104EBFF
:10C5D000800041EA0641C0F8001770BD1CB500227A
:10C5E0000B46009211460192FFF7C2FF1CBD1CB51D
:10C5F00000220B46009211460192FFF7CBFF1CBDB3
:10C600004FF0A04202EB80000321C0F800177047F2
:10C610001CB5002100910B46012201911146FFF744
:10C6200095FF1CBD1CB5002100910B460122019114
:10C630001146FFF79DFF1CBD1CB5002100910B4664
:10C64000012201911146FFF7A5FF1CBD1CB5002179
:10C6500000910B46012201911146FFF7ADFF1CBD71
:10C660004FF0A04202EB8000D0F8002722F44032C5
:10C67000C0F80027D0F8002742EA0141C0F80017AF
:10C680007047000038B5094B44181B6800936B468F
:10C6900008E000BF53F82010D1F8205520C2C1F89F
:10C6A0002055401C8442F5D838BD000018630200B4
:10C6B0004FF0A04201218140C2F80C1570474FF0A5
:10C6C000A04201218140C2F8081570474FF0A042F6
:10C6D00001218140C2F8081570474FF0A0420121A6
:10C6E0008140C2F808157047034908B50844002185
:10C6F00001600068009008BD006000400249405899
:10C70000012800D0002070470060004030B5154A75
:10C7100001460020D2F8104423460AE0DB681D7968
:10C72000854205D1401C0A28F6DB4FF0FF3030BDB2
:10C730001B68002BF2D1431CF9D0CB681871D2F8DA
:10C74000103443B1DB68CC681B682360D2F8102436
:10C75000D268116030BDC2F81014C96800220A60A6
:10C7600030BD0000F82A00207047FDF749B8704737
:10C7700008B5034A00924023024A00F005F808BDBC
:10C7800021E2010060290020F0B595B01C46154655
:10C790000F4608461A9E00F0EDFA182109A8FCF78A
:10C7A0003EFE0E96CDE909540023082203A938461F
:10C7B00000F0F5FA05980690BDF81000ADF81C00E1
:10C7C000BDF81200ADF81E0000208DF8210003987E
:10C7D000082600F00300012802D0022818D032E019
:10C7E00003983346850AC0F3C2008DF820000398F1
:10C7F0000FA9C0F38314A200384600F0D0FA09A8AC
:10C80000009006AB22460FA9284600F00FFA1AE066
:10C810000398840DC0F3C2008DF82000082C01D2CB
:10C82000254600E0082533462A460FA9384600F081
:10C83000B6FA2E44641B09AB06AA29460FA800F0DD
:10C840005DF9002CEAD1384600F09AFA15B0F0BD37
:10C850000A4A012902EBC00007D0022907D00329A8
:10C8600007D0042907D00020704702207047042019
:10C87000704700797047407970470000446D0200AE
:10C8800010B5FFF772FF04210348FFF73FFF02498D
:10C890000120C968487110BD346D02002DE9F04FC8
:10C8A0008DB0FEF70BFB18B100200DB0BDE8F08F86
:10C8B0007E4C4FF0000BC4F818B4BFF34F8F7C4987
:10C8C000A06802900D68D846284004EB80000BE079
:10C8D000D4F8180470B961680298814201D8A16047
:10C8E000E2E7284004EB80000C3002A9FEF754FF79
:10C8F0000028EDD1002005AA029901EA050304EB06
:10C900008303491CDB6842F82030401C0291022856
:10C91000F2D3059800F00300022802D001284DD080
:10C92000AAE005985022810D8946B2EB905F00D8AD
:10C9300050210E4666F39F50059008315D4800F087
:10C94000D0F9070078D000F015FA4346082205A96F
:10C95000384600F02CFA029908F1080A2940681AB2
:10C960008000001D864222D9504D0C3530B1C2B234
:10C9700004EB8101301A90460C3104E02946F2B2F2
:10C98000002590462846C6B25346384600F00FFAB6
:10C990000AEB080325B132462946384600F007FA6B
:10C9A000029909F1030001EB900002903BE004EBD7
:10C9B00081015346324638460C31EFE70598C0F303
:10C9C0008310062800D30620059960F38911C1F36E
:10C9D0008310801C05918100364800F082F9070021
:10C9E0004AD000F0C7F94346082205A9384600F0AE
:10C9F000DEF908F1080800260FE00298434600EA35
:10CA00000501401C04EB81010290042238460C31E0
:10CA100000F0CDF908F10408761C0598C0F38310E6
:10CA2000B042EAD847B1D4F81054D4F8180478B119
:10CA3000384600F0A5F934E01EE0E86840790128A6
:10CA400004D12A682846394612689047E868056884
:10CA5000002DF2D1384600F093F98DF800B0684609
:10CA6000FDF7D2FAD4F8180408B90298A0609DF82E
:10CA70000000FDF7EDFA14E0D4F8104405E0216859
:10CA8000204689688847E0680468002CF7D10A4886
:10CA90000A49401AC008022101EB004008A100F039
:10CAA00019F8FEF70BFA80F00100FEE6F82A0020E4
:10CAB0009C230020CC6D0200AC6D0200446D02008E
:10CAC0004261636B656E647320666C757368656440
:10CAD0000000000000231A4601F022BD08B5012322
:10CAE00000926A4601F01CFD08BD1CB5CDE900238B
:10CAF00002236A4601F014FD1CBD00002DE9F04739
:10CB00000E4680461C469246082940D894F80C9060
:10CB1000002020731946104601F0DEF90025B542C9
:10CB200006D218F805201BA12046FFF709FC03E0F8
:10CB30001AA12046FFF704FC6D1C082DEFD318A1A5
:10CB40002046FFF7FDFB0025B54212D218F805700C
:10CB50007E2F08D8FCF746FC0068C05D10F03E0F41
:10CB600001D03A4600E02E220EA12046FFF7E8FB56
:10CB700003E00DA12046FFF7E3FB6D1C082DE3D376
:10CB800001222146504601F089F984F80C90BDE855
:10CB9000F08700002025303278000000202020009F
:10CBA0007C0000002563000020000000064910B54D
:10CBB00000200870054800F0E1F8002803D104487F
:10CBC00000F01EF9002010BDF82A0020CC6D0200F4
:10CBD0000865020002480349401AC0087047000077
:10CBE000CC6D0200446D020013B56846FFF756F89D
:10CBF00008B100201CBD0248009950F831001CBD4E
:10CC0000446D020070B508480125D0F81044057045
:10CC100007E0E06845712168204649688847E06878
:10CC20000468002CF5D170BDF82A00202DE9FF47DB
:10CC300081460C9D00200C462F7B28739846164693
:10CC40002946184601F048F9072E42D2DFE806F0DF
:10CC500004090F161F2A360049462846FFF770FBC5
:10CC600037E0494628462268FFF76AFB31E0D4E9FD
:10CC7000002349462846FFF763FB2AE0A06800909E
:10CC8000D4E9002349462846FFF75AFB21E0D4E9BE
:10CC90000201CDE90001D4E9002349462846FFF707
:10CCA0004FFB16E004F1080007C88DE80700D4E93F
:10CCB000002349462846FFF743FB0AE004F1080039
:10CCC0000FC88DE80F00D4E9002349462846FFF736
:10CCD00037FB00222946404601F0E0F82F73BDE8FB
:10CCE000FF872DE9F041058A80462D1F4819C01C99
:10CCF000B0FBF5F0C6B24046FFF7C2F8041E19D0EB
:10CD00000020207101206071E58000272546761EF5
:10CD1000C4F800800BE04046FFF7B2F860B16179DB
:10CD2000491C6171286005467F1CC0F80080B7422D
:10CD3000F1D32046BDE8F081204600F002F8002043
:10CD4000F8E72DE9F041457901466B1E002201E02C
:10CD50000968521C9A42FBD30F680146002605E081
:10CD600038460C68FFF7AEF82146761CAE42F7D382
:10CD7000BDE8F0810121001DFFF760B8FFF7BAB8E8
:10CD800010B504460121001DFFF774F810F0FF0FE5
:10CD900004D12046BDE81040FFF7D3BF10BD1CB53D
:10CDA00001920122009201AAFEF738FF1CBD1CB5BA
:10CDB00001920022009201AAFEF730FF1CBD000084
:10CDC000064910B500204870091D0860BFF35F8F49
:10CDD0000349044800F0FEF9002010BD8423002020
:10CDE000A06302005429002010B500F0CFF908B16B
:10CDF00041DF10BD20BF40BF20BF10BDFCF7AABF60
:10CE00008268002191608268116182685161826844
:10CE1000D1608268516080680160704708B5002267
:10CE200042504058009008BD20B103490968016094
:10CE3000002070470E2070478C6502002DE9FE43EC
:10CE400007460E460846FFF7EFFF002878D1002579
:10CE50000095019506208DF800704FF00108ADF89F
:10CE6000040002958DF8028069462020326869DF4F
:10CE70003449354A891AC908012202EB014430B10C
:10CE800000F01AFA024620463049FFF727FE0095C7
:10CE9000019502958DF8018069464020326869DF6E
:10CEA00030B100F009FA024620462949FFF716FE84
:10CEB00000958DF80070F720ADF8020001950295FD
:10CEC00069462320326869DF30B100F0F5F9024687
:10CED00020462049FFF702FE0095019502958DF846
:10CEE000008069460120326869DF30B100F0E4F962
:10CEF000024620461849FFF7F1FD4FF4B06000905C
:10CF0000019502956946A120326869DF30B100F0D1
:10CF1000D3F9024620461149FFF7E0FD009501953F
:10CF200002958DF800506946A020326869DF30B163
:10CF300000F0C2F9024620460949FFF7CFFD002064
:10CF4000BDE8FE83BC6D0200446D0200886B0200E8
:10CF5000D06B02001C6C0200E86A0200346B020015
:10CF6000946A02002DE9F0410546076860DF8046BB
:10CF700019491A482A68081AC608BA4219D902205B
:10CF800000EB064416A12046FFF7A4FD20463A46D2
:10CF90001FA12B68FFF7A9FD4FF08050D0F80C01BE
:10CFA0002968800200F10050421A204625A1FFF7AF
:10CFB00095FDB8F100004FF001040AD000F07CF9B3
:10CFC000024604EB06402AA1FFF788FD4046BDE873
:10CFD000F0812F480470F9E7BC6D0200446D020037
:10CFE000496E73756666696369656E742052414D5A
:10CFF00020616C6C6F636174656420666F7220746D
:10D00000686520536F66744465766963652E000019
:10D010004368616E6765207468652052414D2073D6
:10D0200074617274206C6F636174696F6E206672D4
:10D030006F6D203078257820746F20307825782E19
:10D04000000000004D6178696D756D2052414D20E2
:10D0500073697A6520666F72206170706C696361B4
:10D0600074696F6E20697320307825782E00000077
:10D0700073645F626C655F656E61626C6528292010
:10D0800072657475726E65642025732E0000000051
:10D09000F323002030B51548ADF5017D0078002858
:10D0A00021D04FF4FA7500BFADF8005280A9684650
:10D0B00061DF38B1052816D00DF5017DBDE830409F
:10D0C000FCF748BE6C460A497DA800F083F806E0EC
:10D0D000D0E90021204690477DA800F092F87F9883
:10D0E0000028E1D0F4E70DF5017D30BDF3230020E9
:10D0F000906502007CB5194C207808B108207CBDF1
:10D100000120A070002001F055F8112819D000204E
:10D1100001F068F812480026006801908DF8006060
:10D120006846FCF771FF0F4901A810DF05000AD01F
:10D13000002020709DF80000FCF78AFF2DB12846E2
:10D140007CBD00207CBD0120F3E7A670667001F075
:10D150000BF9012001F046F8F3E70000F02300206E
:10D1600024650200D19C01000EB50749684600F015
:10D1700031F805E0D0E900108847684600F041F832
:10D1800002980028F6D10EBD4065020001480078E3
:10D1900070470000F02300201FB568464BDF30B118
:10D1A000052814D004B0BDE81040FCF7D3BD0849F1
:10D1B00001A800F00FF806E0D0E9002100989047A0
:10D1C00001A800F01EF803980028E6D0F4E71FBD80
:10D1D000AC650200016009684160AFF3008010B5E2
:10D1E000D0E900215368994201D1002104E0D1E93E
:10D1F0000034A34202D01946816010BD083141605D
:10D20000F0E7816800290BD0026892680A448260C6
:10D2100041684B689A4203D108314160FFF7DFBF94
:10D22000704770B50D460646446804E0B26829466A
:10D23000904718B1246820680028F7D1206828603A
:10D24000256070BD40680068704741680868002824
:10D2500001D002680A60704702460020526806E06A
:10D260008B4203D108681060012070471A4613688A
:10D27000002BF5D170474058002800D0012070479E
:10D280000C4A10B502F594730EE0991AC91001EB1F
:10D29000D171491002EBC1010C68844201D90B46DF
:10D2A00002E005D201F108029A42EED3002010BD3F
:10D2B000486810BDC063020000B5FFF7E1FF002819
:10D2C00000D1014800BD0000AC63020040580028B6
:10D2D00000D00120704708B500224250405800900D
:10D2E00008BDD0F80403084000D001207047405822
:10D2F000002800D00120704708B500224250405855
:10D30000009008BD02480068002800D00120704746
:10D310000004014008480068012110F0010F06D107
:10D320004FF0E020C02280F800248430C167034918
:10D33000012008607047000000E100E0180500408F
:10D340000549024600200B790BB1852070470A6021
:10D3500001220A717047000018230020022010B536
:10D360004107C1F808034FF48270FEF7FAFE054941
:10D370000120086004480168C1F300410029FAD186
:10D3800010BD00000C00004018040040002802D02E
:10D390000149800108477047716302000121B1EB28
:10D3A000507F01D101207047002070470121B1EB6F
:10D3B000507F01D1012070470020704738B50D46DD
:10D3C00000F0D6FD040014D000208DF8000068465F
:10D3D000FCF71AFE207928B19DF80000FCF738FE12
:10D3E000112038BD0120256020719DF80000FCF758
:10D3F0002FFE002038BD00002DE9FC470C461546E5
:10D4000001798046554A01EBC10002EB800699463E
:10D41000307F10B10820BDE8FC87514AD8F80000E1
:10D42000074652F82110FFF7C9FF08B11120F2E7B3
:10D43000C6E90059207B0128207802D8FFF738F987
:10D4400001E0FFF74AF94FF0000ACDF800A0CDF84F
:10D4500004A02078534652460121FFF7ADF86078CA
:10D460004FF0FF35FF2806D08146FFF721F94846E7
:10D47000FFF7ECF800E0A946A078FF2809D00022C9
:10D4800005460123CDF800A01146CDF804A0FFF712
:10D4900093F8A07886F82000E078F077E078FF280D
:10D4A0000BD0217911B1FFF703F901E0FFF715F96E
:10D4B000E078FFF7CBF82079B0772178C7F8081526
:10D4C000C7F80C95C7F81055A068C7F82405217B4C
:10D4D000607B00B10120012904D0022905D0032975
:10D4E00008D105E040F0020004E040F0040001E053
:10D4F00040F00600C7F85405A079C7F8C00507201A
:10D50000C7F800053068012218B3D8F80000617927
:10D5100040F3073000284FEA411104DB00F1E0201E
:10D5200080F8001405E000F00F0000F1E02080F822
:10D53000141DD8F8000040F30730002809DB00F084
:10D540001F0102FA01F14009800000F1E020C0F85B
:10D550000011504686F81DA032775CE79C28002019
:10D56000346302002DE9F04105460F460079154964
:10D5700000EBC00001EB80041646607F10B1112063
:10D58000BDE8F081206820B116F0140F01D1012010
:10D59000607797E80F0004F10C0888E80F00E07F3F
:10D5A000FF2806D0A17F11B1FFF797F801E0FFF740
:10D5B0007FF833463A4621462868BDE8F04100F03E
:10D5C00051BF00009C2800200149024801F082B9A7
:10D5D0004C280020002000402DE9F041054600794C
:10D5E00016460F4600EB40012D4A01EBC00102EB4D
:10D5F000810494F82A1011B10820BDE8F08129496E
:10D6000051F820102868FFF7D9FE08B11120F4E77F
:10D6100039462846FCF736FD6660386920603000E0
:10D620004FF001062FD03F7F4FF48E712868FFF72F
:10D6300052FE4FF4A2712868FFF74DFE28681A4980
:10D64000C0F8041328684FEA471140F30730002858
:10D6500004DB00F1E02080F8001405E000F00F008A
:10D6600000F1E02080F8141D286840F307300028FE
:10D6700009DB00F01F0106FA01F14009800000F10A
:10D68000E020C0F8001128680421C0F8001500202F
:10D69000A061E06184F8290044F8140FA675ACE796
:10D6A0004C2800201C630200800002002DE9F05F7E
:10D6B000054600794FF4017600EB400303EBC00010
:10D6C000344B03EB80040020636813B12B68C3F86C
:10D6D0000863A3694FF000096BB1E06938B1606875
:10D6E00010B12868C0F804631120BDE8F09FE26122
:10D6F0000120216105E0C4F82490A261E160C4F832
:10D700001C9094F82910014302D1284600F015FD21
:10D7100060680028286803D0C0F804630020E4E7AC
:10D720004FF4A2763146FFF7D6FDB2464FF4927B16
:10D7300059462868FFF7CAFD06464FF484712868E9
:10D74000FFF7C4FD804651462868FFF7BFFD074636
:10D7500048EA07003043EBD056EA070007D12146DC
:10D76000286800F0BBFCA169606A8142E0D8C4F877
:10D7700018900EB10320B8E70FB10F20B5E794F869
:10D78000291001200029296801D00860C6E74860F7
:10D79000C4E700004C2800202DE9F05F0546007921
:10D7A0000B4600EB400101EBC000244901EB800473
:10D7B000284600F045F810B11120BDE8F09F6261E5
:10D7C0004FF00009C4F82090A36084F828904FF42B
:10D7D0008E784E4641462868FFF77DFD28684FF059
:10D7E000010AC0F808A02146286800F08DFF606893
:10D7F00008BBD5F800B067690FE000BF94F82800B7
:10D8000008B10F2615E041465846FFF75FFD002896
:10D81000F4D02146584600F077FF206AB842F2D390
:10D82000574641462868FFF751FD0028F9D028687F
:10D83000C760C4F814903046BFE700004C280020B1
:10D84000007900EB400101EBC000044901EB8000CE
:10D850004069002800D00120704700004C280020BB
:10D860000149024801F0E4B8782800200020004077
:10D870002DE9F0410546164600790F46154A00EBA2
:10D88000C00102EB810494F8201011B10820BDE81A
:10D89000F081114951F820102868FFF78FFD08B179
:10D8A0001120F4E739462846FCF730FC66603869F9
:10D8B00020601EB1397F2846FDF72AFF286808211D
:10D8C000C0F800150020A061E0616061012184F8CA
:10D8D0002010DCE778280020206302002DE9F05FAB
:10D8E000044600790E4600EBC001DFF8F0A01746B1
:10D8F0000AEB81053046FFF751FDB0B168684FF083
:10D9000000084FF4047910B12168C1F80893A869A0
:10D910004FF0000B80B1E86948B1686810B1206829
:10D92000C0F804931120BDE8F09F1020FBE7EF61E1
:10D930004FF001082E6102E0EE60C5E9067B00258C
:10D940004FF488712068FFF7D7FC4FF4A27120686C
:10D95000FFF7D2FC2068C0F83465C0F8387520683D
:10D96000B8F1000F12D0D0F8001241F02001C0F839
:10D9700000122079D04600EBC0010AEB810040681C
:10D9800038B12068C0F804932846CCE70121016033
:10D99000EFE74FF4887A4FF4A27951462068FFF7F9
:10D9A000A6FC074649462068FFF7A1FC06464FF44F
:10D9B00092712068FFF79BFC014647EA0600084386
:10D9C000EBD0227902EBC20308EB8302C2F818B055
:10D9D00001B10325002ED7D00F25D5E778280020E8
:10D9E0002DE9F04704460E460079274900EBC000B8
:10D9F00001EB800517463046FFF7D0FC30B12046DA
:10DA000000F044F820B11120BDE8F0871020FBE7BA
:10DA10006F61AE604FF490774FF000083946206890
:10DA2000FFF76AFC4FF4AC7631462068FFF764FCE0
:10DA30002068AA686969C0F84425C0F848152068BC
:10DA40004FF00109C0F808906868D0B9BA4651464D
:10DA50002068FFF74CFC074631462068FFF747FC7B
:10DA60000743F4D010B14FF00F0808E02068C0F869
:10DA70000C9031462068FFF73AFC0028F9D00020CE
:10DA800068614046C0E70000782800200079054919
:10DA900000EBC00001EB80004069002800D00120AD
:10DAA00070470000782800202DE9F04105460078F5
:10DAB000002828D1154816490026401AC00801211F
:10DAC00001EB004710E02869805DFCF773FA040061
:10DAD00009D0112CF7D0384622460EA1FEF7FEFFE2
:10DAE0002046FCF737F9761CA88AB042EBD8A98A01
:10DAF0002869084410F8010C0D2804D10A20FCF70D
:10DB000059FA1128FAD0BDE8F0810000AC6D02008E
:10DB1000446D02004661696C6564207265636569E5
:10DB200076696E67204E5553206D65737361676526
:10DB30002E204572726F7220307825782E200000DA
:10DB400003490860034801680029FCD070470000C1
:10DB500004E5014000E4014010B550B103280CD1A8
:10DB60000220FDF743F9002807D0BDE81040FCF77C
:10DB7000F1B8BDE8104000F0D7BB10BD0078002818
:10DB800007D104483B21008876DF002801D0FCF74C
:10DB9000E1B87047D0220020F0B58BB00026019686
:10DBA0000D4604468988406901AAFCF7F3FA0AA8E1
:10DBB000CDE908600227ADF82070ADF82260218918
:10DBC000A88808AAADDF002819D1A069002816D0BE
:10DBD0000998FDF7C2F8002811D0019E0EB101206E
:10DBE0003070182102A8FBF71AFC8DF80870039416
:10DBF000A888ADF810000596A16902A888470BB067
:10DC0000F0BD000070B502468888C97B00EB400378
:10DC100002EB4304A41D012901D111882180218830
:10DC20006288914213D9A5DF012578B111280FD060
:10DC3000FFF742FB024607480749401AC00805EBB8
:10DC40000040BDE8704005A1FEF748BF657170BD9A
:10DC5000257170BD446D0200446D020073645F6203
:10DC60006C655F67617474635F65786368616E6734
:10DC7000655F6D74755F72657175657374282920B1
:10DC800072657475726E65642025732E0000000045
:10DC90007CB506468D88C88805EB450106EB410436
:10DCA000A41D172800D217202188814200D80846D9
:10DCB00060800020207121882846B5DF60B1FFF721
:10DCC000FBFA02460F481049401AC008012101EB37
:10DCD00000400EA1FEF702FF6079002810D1F06825
:10DCE00000280DD01549D1E90201CDE90001ADF8B8
:10DCF00002506088ADF80400F268694630469047EB
:10DD00007CBD0000446D0200446D020073645F62DC
:10DD10006C655F67617474735F65786368616E6773
:10DD2000655F6D74755F7265706C79282920726506
:10DD30007475726E65642025732E0000F86202000F
:10DD4000F0B587B00C4605468E1D8988406906AA45
:10DD5000FCF720FA18216846FBF761FB0195A088C3
:10DD6000069AADF80800039231882B89002704F148
:10DD70001200994202D17389022B0DD0AA899142D7
:10DD80001ED1A96900291BD08DF8007004907089FC
:10DD9000ADF81400A96911E0002A11D0FCF7DDFFED
:10DDA00020B1069901200870022002E00698077051
:10DDB00003208DF80000A969002901D06846884732
:10DDC00007B0F0BD0068012803D0022801D0002070
:10DDD00070470120704700002DE9F05F2A4F06468A
:10DDE0004FF0A04A4FF0010B0024381990F9501061
:10DDF000491C3CD090F85000314620F0C005284620
:10DE0000FEF790F820B3204600F040F881460AEB78
:10DE10008500D0F80007C0F30148B8F1020F18D010
:10DE200002212846FEF71CFC0BFA05F1CAF8201562
:10DE30002846FDF74FF857F820204AB14846B9F177
:10DE4000030F11D0B8F1020F05D0B8F1030F07D0BE
:10DE50000DE00321E5E74846B9F1010F04D006E0E3
:10DE60004846B9F1020F02D1014628469047641C8A
:10DE7000042CBAD3324601210020FEF703FC30689F
:10DE80000028B1D1BDE8F09FF027002002490844E6
:10DE900090F8500080097047F027002010B50C461C
:10DEA000017A052908D0407A38B1084808A10268EB
:10DEB0002046FEF745FA00E01AB106A12046FEF71B
:10DEC0003FFA2046BDE81040FEF747BACC230020B9
:10DED000257300000D0A000038B5C3880D460446BE
:10DEE00033B114A0009015A216A12846FEF728FA17
:10DEF000217A05291CD0607A48B1A088FEF7A8FCD9
:10DF0000164951F8202016A12846FEF719FAA088D4
:10DF10000021FEF769FE03461049207A143951F8B2
:10DF2000202001B02846BDE830400EA1FEF708BA17
:10DF300038BD00001B5B306D000000001B5B313BF7
:10DF400033316D0025734C6F67732064726F70708E
:10DF50006564202825642925730D0A00CC23002040
:10DF6000257300003C25733E2025733A20000000F5
:10DF70000349884201D103487047002070470000E0
:10DF8000002000402023002070B50546FDF7F1F980
:10DF9000134C40B1D4E904024FF08071411842F1B2
:10DFA0000000C4E9041000212846FDF72FF930B124
:10DFB000606820B1606800F0FFFA00206060012115
:10DFC0002846FDF723F918B1FDF72AFBC4E906013D
:10DFD000284600F03DFB2846BDE8704000F038B808
:10DFE000382300202DE9F04100260E70D0E902749C
:10DFF0000D468046FDF714FB381A002364EB01013F
:10E000001A461B1A8A4115DAB0F5350F04D3FBF70F
:10E01000D5FE0D49421800E03A464FF49603002120
:10E020000A48FDF7B2F910B10D2807D00AE0012027
:10E03000BDE8F08100210548FDF7DEF8404600F01C
:10E04000BBFA28700020F3E7FFFFB4004023002054
:10E05000F8B5204C064600251F48FFF7F3F810B32B
:10E06000D0E90210CA4372EA000224D0626882B189
:10E070006368D3E90223891A984127D26068D0E9FE
:10E080000210C94371EA000103D061681248FFF72A
:10E09000C8F800F095F907466946FFF7A3FFB0B14D
:10E0A000606858B10DE0606800280FD13046BDE8C7
:10E0B000F840FDF766B900F083F9CDE73046FDF78B
:10E0C0005CF967609DF800000028C5D1F8BD656067
:10E0D000C2E70000382300204063020070B5054607
:10E0E00088690C4600284FF4847128460AD0FFF74F
:10E0F000F2F8D5F81805626AE1688854606A401C35
:10E10000606270BDFFF7E7F8D5F8180570BD1FB560
:10E1100001238DF80030CDE90121D0E900126846D5
:10E1200090471FBD1FB501238DF80030CDE90121B7
:10E13000D0E90012684690471FBD10B5044600683C
:10E140004FF49271FFF7C7F84FF484712068FFF71E
:10E15000C2F820680121016010BD000038B500211F
:10E16000012548B1012810D003280DD1FFF7D2F8BE
:10E17000BDE83840FEF73EB84FF0E020C0F88051CF
:10E18000BFF34F8FBFF36F8F38BD8DF80010684617
:10E19000FBF73AFF064C207808B9FEF70BF8E06869
:10E1A000401CE060A5709DF80000FBF751FF38BDF2
:10E1B000DC2700203EB5044609496846FFF70AF807
:10E1C00008E000BFD0E900212046904730B1684602
:10E1D000FFF717F802980028F4D13EBD11203EBD8C
:10E1E000286502003EB5044608496846FEF7F2FF7E
:10E1F00007E000BFD0E90021204690476846FFF7BE
:10E2000000F802980028F5D13EBD000034650200F8
:10E2100002498969002900D0084770474427002037
:10E220002DE9F0411400884618D000250E4F032632
:10E2300008EB050122460020FBF7E4FA0544241A06
:10E2400040B93878002809D008494FF47A40884707
:10E25000761E05D001203870002CE9D1BDE8F08190
:10E2600000203870FAE700009023002001650200CA
:10E270002DE9F0410746806A14468846C8B3002558
:10E2800031E000BFB96A05EB450001EB8006B088BC
:10E29000801CFE2802D90C20BDE8F0812288401C99
:10E2A00008F8020020881622401C80B2208008F85E
:10E2B00000202088401C80B2208000EB08013088BC
:10E2C00000F03FFC2188084480B22080B28842B12F
:10E2D000B16871B14044FBF789F82088B1880844DF
:10E2E00020806D1CEDB297F82C00A842CAD80020FF
:10E2F000D2E7FFE70720CFE70A78062822F0FF02DF
:10E300000A7010D2DFE800F0030507090B0D0020AA
:10E3100008E0112006E0212004E0312002E0122074
:10E3200000E022200870704710B50020FCF75EFD69
:10E3300008B1FBF70FFDFCF721FD08B1FBF70AFD63
:10E3400033DF002803D0BDE81040FBF703BD10BD4C
:10E35000002805D10349012048700020FCF78ABE3F
:10E3600070470000DC27002010B51620FBF76EFC7C
:10E37000A0B1114890F800044009082811D20121E9
:10E38000814011F0EC0F0CD00C4882684FF48001F2
:10E390006AB1016841F48001016010BD42F20100E0
:10E3A00001E042F20200BDE81040FBF7D3BC4FF0A1
:10E3B000E020C0F8001110BD16E000E04829002060
:10E3C0000148FEF742BF00004063020001490120FE
:10E3D00008707047F82200201FB5124A0023D2E9C6
:10E3E0001201526DCDE9000106208DF80300FF20D7
:10E3F0008DF8020014208DF8010013208DF8000024
:10E40000C007029004208DF8040006480392064AD3
:10E4100069463830FDF708FF002801D0FBF79AFC69
:10E420001FBD0000A0620200CDE3010000B585B071
:10E430000A4601788DF8001041680191017A8DF843
:10E440000810C1680391007C8DF81000044850F852
:10E450002210083850F822206846904705B000BDC9
:10E46000302300202DE9F843044610681E46154667
:10E470000F464FF0000810B1FEF798FFF8B1A868FA
:10E4800010B1FEF793FFD0B1D5E90001C4F84405FF
:10E49000C4F84815D5E90201C4F83405C4F83815A4
:10E4A0004FF48C754046C4F81881D4F818110091C7
:10E4B000F2074FF0010107D0C4F8501506E087F8C5
:10E4C0001D801020BDE8F883C4F85005B20702D5BE
:10E4D000C4F8401501E0C4F84005300700D42161BC
:10E4E000386848B146F38000401C4FF0400014D01B
:10E4F000C4F804030020E5E729462046FEF7BBFEEA
:10E500000028F9D0F87FFF28F4D0B97F11B1FEF7C9
:10E51000CFF8EFE7FEF7E1F8ECE7C4F80803E9E726
:10E520002DE9F84F074622489146884605681E4661
:10E53000012269461846FCF75FFCDFF878A060B35B
:10E54000009800210446801C0AE000BF00EA050292
:10E5500059F821C00AEB8202401C491CC2F80CC0C9
:10E56000B142F3D34FEA1749FCF73CFE611C294046
:10E570000AEB810149EA00422C40CA600AEB84019F
:10E58000C86867F3C50066F3891068F39F2020F020
:10E590000300401C20F00400C8609AF8000001E06D
:10E5A000FEF77CF90028FBD1FDF75EF9BDE8F88F96
:10E5B0009C230020F82A0020F8B5044622480026B3
:10E5C000007878B374B3FDF72BF8D4E90232C01A9F
:10E5D00091412DD300258DF800506846FBF714FDBE
:10E5E000206910B9681EC4E902009DF80000FBF71D
:10E5F0002FFDD4E9051088478DF800506846FBF7D9
:10E6000003FD22697AB1D4E90210CB4373EA000317
:10E6100009D089186841C4E902109DF80000FBF791
:10E6200017FD09E00DE09DF80000FBF711FD08E083
:10E63000D84370EA020004D021460448FEF7F1FDF9
:10E6400001263046F8BD0000382300204063020058
:10E6500038B51D4D69462868FDF7B4FB1B4C30E00A
:10E66000017821B101290ED0022922D117E0416899
:10E67000D1E90220D24372EA00021AD012480830CF
:10E68000FEF7CFFD15E041686068814202D10020AD
:10E6900060600EE00C480830FEF7DEFD09E0FFF791
:10E6A0008FFE20B14FF0FF31C0E90211F7E70120E2
:10E6B000207069462868FDF77AFB69462868FDF7EF
:10E6C00081FB0028CCD138BD3863020038230020FC
:10E6D000F8B50B4C0D46064669462068FDF75CFB15
:10E6E00058B10670456069462068FDF776FB10B1A9
:10E6F0000448FCF72BFE0020F8BD0420F8BD000004
:10E70000386302004023002070B50C4605464FF4E4
:10E710008E71FEF7E0FD216AA068415C206A401C12
:10E720002062C5F81C1570BD1FB500228DF80020B1
:10E730000291816801914261D0E9001268469047D8
:10E740001FBD1FB500228DF8002002918168019144
:10E750004261D0E90012684690471FBD30B501788C
:10E76000BFB029B1012901D0022930D140682CE085
:10E770006846FBF7B3FB1749174A0120891ACC08F2
:10E78000054600EB044015A1FEF7A4F9022000EBBA
:10E79000044012A1FEF79EF9032000EB04400FA1F4
:10E7A000FEF798F9154C00BF1448ADF8F4502388D3
:10E7B0003DAA69460830FCF7F7F9082807D0132866
:10E7C000F2D0052803D0002801D0FBF7C3FA3FB0F0
:10E7D00030BD0000AC6D0200446D02005265616402
:10E7E0007920746F2073656E642064617461206F9A
:10E7F00076657220424C45204E555300D0220020B1
:10E800007CB50178254DA1B301290BD002291DD17A
:10E810008DF80010C068691C01900122C81DFDF729
:10E820006FFD30E0017A59B1406801781C48FBF770
:10E83000B7FA1B4C012650B18DF8006001900DE035
:10E8400016490122491CC81DFDF75AFD7CBDA06870
:10E85000E168814205D000208DF8000069686846B3
:10E860008847A068E168081AA1888842E8D9AE7094
:10E870007CBDFFE70A4809491030FBF776FA30B152
:10E8800003208DF80000696868468847F0E703496F
:10E89000012201F10800FDF743FDE9E75C230020B8
:10E8A000282900201FB50A4601788DF8001041681C
:10E8B0000191017A8DF80810C0680390044850F85F
:10E8C0002210001F50F82220684690471FBD00000C
:10E8D000142300202DE9FF470C4605464FF4007134
:10E8E000FEF7FFFC01274FF40178002618B34FF420
:10E8F000927949462846FEF7E9FCE0B149462846A8
:10E90000FEF7E9FCC5F8088394F8290000B96F60A8
:10E9100002208DF80000D5F88004C5F8800403902B
:10E92000A0690290E0680190A661E661D4E9001256
:10E930006846904728E004212846FEF7D2FC18B329
:10E940004FF484712846FEF7C1FCE8B12146284601
:10E95000FFF7C4FB616AA069884215D1E06938B14C
:10E96000E268616AA0612069E6616662E06008E0D1
:10E9700094F8290000B96F60C5F80883A661E268C1
:10E98000616A2046FFF7C3FB4FF48E784146284664
:10E99000FEF79CFC80B16069216A814202D294F842
:10E9A000280028B341462846FEF795FC606918B157
:10E9B00061692046FFF7B8FE4FF4A2784146284629
:10E9C000FEF784FC002818D041462846FEF783FC59
:10E9D00094F8290000B12F60A06900280DD0A6612D
:10E9E000E268616A04B02046BDE8F047FFF78FBBDC
:10E9F00021462846FFF788FEDEE7BDE8FF870000D6
:10EA00001FB50A4601788DF8001041680191017A1E
:10EA10008DF80810C0680390044850F82210001FB9
:10EA200050F82220684690471FBD000014230020A4
:10EA30002DE9FF410C464FF4927705463946FEF723
:10EA400056FC0026B8B139462846FEF755FC022090
:10EA50008DF80000D5F88004C5F880040390D5F83F
:10EA60003C050290E0680190A661E661D4E90012DD
:10EA70006846904723E04FF4887739462846FEF7EA
:10EA800036FCE0B139462846FEF736FCD5F83C1591
:10EA9000A069884213D1E06960B1E268D5F800024C
:10EAA00020F02000C5F80002E069A0612069E6615D
:10EAB000E06001E0A661E2682046FFF733FB4FF417
:10EAC000A27739462846FEF712FC68B13946284637
:10EAD000FEF712FCA06938B1A661E661D5F83C15D5
